:020000040800F2
:10000000580700209D0100082F160008ED14000875
:100010002D160008CD020008F51A000800000000A7
:10002000000000000000000000000000331600087F
:100030008D03000800000000311600083516000886
:10004000B7010008B7010008B7010008B7010008B0
:10005000B7010008B7010008B7010008B7010008A0
:10006000B7010008B7010008B7010008B701000890
:10007000B7010008B7010008B7010008B701000880
:10008000B7010008B7010008B7010008B701000870
:10009000B7010008B7010008B7010008B701000860
:1000A000B7010008B7010008B7010008B701000850
:1000B000B7010008B7010008B7010008B701000840
:1000C000B7010008B7010008B7010008B701000830
:1000D000B7010008991A0008B7010008B701000825
:1000E000B7010008B7010008B7010008B701000810
:1000F000B7010008B7010008B7010008B701000800
:10010000B7010008B7010008B7010008B7010008EF
:10011000B7010008B7010008B7010008B7010008DF
:10012000B7010008D1020008B7010008B7010008B4
:10013000B7010008B7010008B7010008B7010008BF
:10014000B7010008B7010008B7010008B7010008AF
:10015000B7010008DD020008B7010008A51A000871
:10016000B7010008B7010008B7010008B70100088F
:10017000B7010008B7010008B7010008000000003F
:10018000B7010008B7010008DFF80CD000F08CF8C8
:1001900000480047E51D0008580700200648804732
:1001A00006480047FEE7FEE7FEE7FEE7FEE7FEE75C
:1001B000FEE7FEE7FEE7FEE7CD160008890100082E
:1001C0002DE9F05F0546002092469B46884606468C
:1001D000814640241BE0284641464746224600F01F
:1001E00053F853465A46C01A914110D31146184647
:1001F000224600F03AF82D1A67EB01084F462246D6
:100200000120002100F031F817EB00094E41201EBB
:10021000A4F10104DFDC484631462A464346BDE8E6
:10022000F09F40EA01039B0703D009E008C9121FB1
:1002300008C0042AFAD203E011F8013B00F8013BA0
:10024000521EF9D27047D2B201E000F8012B491ECC
:10025000FBD270470022F6E710B513460A46044663
:100260001946FFF7F0FF204610BD202A04DB203A94
:1002700000FA02F1002070479140C2F1200320FAF9
:1002800003F3194390407047202A04DB203A21FAF7
:1002900002F00021704721FA02F3D040C2F120029F
:1002A0009140084319467047064C074D06E0E06848
:1002B00040F0010394E8070098471034AC42F6D3AD
:1002C000FFF766FF3021000850210008FEE700001C
:1002D000014800F0E1B80000D0010020014800F022
:1002E000DBB800003002002001681823CAB2103ABF
:1002F000B2FBF3F2054B6FF30901032A9B5CC36564
:1003000000D9091D816508467047000010210008CA
:1003100010B5014600208B698A6A4FF0C07453B152
:10032000B3F5005F15D072B1012A0CD0022A0AD0B1
:10033000032A09D104E01AB1012A06D0022A03D106
:10034000C96AC90100D5012010BDC96AA142FAD00D
:1003500010BD002AF7D0012AF2D0022AF3D0032AD6
:10036000F3D010BD30B50468256825F480252560DC
:10037000046863608368402B036803D09960006859
:10038000C26030BD9A600068C16030BD704772B60F
:10039000FEE7000010B558B1084C491E0BD310F809
:1003A000013B5340DBB234F8133083EA1222F4E706
:1003B0004FF6FF7010BD104610BD0000101F000862
:1003C00010B5064C04E000BF10F8013B5340E25C5E
:1003D000491E89B2F8D2104610BD0000101E000858
:1003E0002DE9F0410446876D00F0C0FA064694F806
:1003F00035000025022806D08020606584F834503E
:100400000120BDE8F0812068016821F0160101603B
:100410002068416921F080014161206C08B9A06C1D
:1004200020B12068016821F008010160206801689E
:1004300021F0010101600CE000F098FA801B052812
:1004400007D920206065032084F8350084F83450F3
:10045000D7E720680068C007EED194F85C103F2011
:100460008840B860012084F8350084F834500020BA
:10047000C7E790F83510022903D08021416501209B
:100480007047052180F835100068016821F00101EE
:1004900001600020704700002DE9F84304464FF04A
:1004A0000009CDF8009063484FF41651A56D00681F
:1004B000B0FBF1F72E6894F85C10082000FA01F107
:1004C00031420FD021680A6852070BD50A6822F022
:1004D00004020A6094F85C108840A860606D40F0E7
:1004E0000100606594F85C104FF0010808FA01F013
:1004F000304208D021684969090604D5A860606DBA
:1005000040F00200606594F85C100420884030429E
:1005100008D021680968890704D5A860606D40F09B
:100520000400606594F85C1010208840304218D0B8
:1005300021680968090714D5A86020680168490383
:1005400004D50068000308D5A16C07E00168C9055F
:1005500003D4016821F008010160216C09B1204633
:10056000884794F85C1020208840304231D02168C0
:100570000968C9062DD5A86094F8350005282068BB
:10058000016806D0490347D5006800031DD4616C9B
:100590001CE021F0160101602068416921F0800112
:1005A0004161206C08B9A06C20B12068016821F07D
:1005B0000801016094F85C103F208840A86084F82E
:1005C000358084F83490216D1FE0E16B09B120463D
:1005D0008847606D00282BD0606DC00714D00520BF
:1005E00084F835002068016821F00101016000985D
:1005F000401C0090B84203D820680068C007F6D1BC
:1006000084F8358084F83490E16C002910D001B072
:100610002046BDE8F04308470168C905D5D4016804
:1006200021F01001016084F8358084F83490CCE723
:10063000BDE8F883E40000202DE9F041044600F015
:1006400095F906465CB1022084F83500002584F84F
:1006500034502068016821F0010101600DE00120A3
:10066000BDE8F08100F082F9801B052805D9202023
:100670006065032084F83500F2E720680068C00751
:10068000F0D12268116820480140D4E901031843E1
:10069000D4E903363343184363691843A369184305
:1006A000E3691843236A18430843616A042903D1A4
:1006B000D4E90B1319430843106020684069666A47
:1006C00020F0070130460E43012704280CD1A06A10
:1006D0000643E06A40B12046FFF71AFE20B14020F1
:1006E000606584F83570BAE7206846612046FFF7F8
:1006F000FBFD94F85C203F2191408160656584F8A2
:1007000035700020ACE700003F8010F02DE9F0418B
:100710000446866D90F83400002501280DD0012094
:1007200084F8340094F835700020012F07D084F845
:10073000340002252846BDE8F0810220FBE70227AD
:1007400084F8357060652046FFF70CFE94F85C1065
:100750003F208840B0602068016841F016010160C8
:10076000206C20B12068016841F008010160206818
:10077000016841F001010160DCE700002DE9F84F5C
:10078000DFF8BCA1002201250AF1040B03264FF07B
:100790000F090BF1040E00BF0B6805FA02F42340A9
:1007A000A34270D10F7907F00307012F01D0022F68
:1007B00016D187684FEA420806FA08FC27EA0C07B8
:1007C000D1F80CC00CFA08FC4CEA070CC0F808C0C1
:1007D0004768A7430C79C4F3001494403C43446039
:1007E0000C79E443A4070AD0C4684FEA420C06FA25
:1007F0000CF7BC438F6807FA0CF72743C7600C79E6
:1008000004F00304022C12D1D40800EB840CDCF8B1
:1008100020405707FF0E09FA07F824EA0804D1F828
:10082000108008FA07F848EA0408CCF82080046829
:100830004FEA420C06FA0CF7BC430F7907F00307A6
:1008400007FA0CF7274307604C6814F4403F70D058
:100850003C4C276847F480472760246822F0030750
:1008600004F480440094384C07EB040CDCF808488E
:1008700097074FEA177809FA08F7BC43334FB84295
:1008800002D1002724E054E0314FB84201D10127C2
:100890001EE0304FB84201D1022719E02E4FB84276
:1008A00001D1032714E02D4FB84201D104270FE0F6
:1008B0002B4FB84201D105270AE02A4FB84201D197
:1008C000062705E0284FB84201D1072700E0082796
:1008D00007FA08F72743CCF80878DAF800405746BB
:1008E000D1F804C09C435FEACC3C00D51C433C607B
:1008F000DBF800405F46D1F804C09C435FEA8C3CC3
:1009000000D51C433C60DEF800407746D1F804C0B7
:100910009C435FEACC2C00D51C433C60084F0C374D
:100920003C68D1F804C09C435FEA8C2C00D51C4382
:100930003C60521C102AFFF42FAFBDE8F88F000076
:10094000003C0140443802400030014000000240B9
:100950000004024000080240000C02400010024067
:100960000014024000180240001C02400148806848
:1009700070470000D80000200248816802781144C6
:1009800081607047D80000200B4810B5016841F421
:1009900000710160016841F480610160016841F407
:1009A00080710160032000F06FF8002000F006F86D
:1009B00000F024F8002010BD003C024070B50D4D41
:1009C00004464FF47A712878B1FBF0F00A490968BF
:1009D000B1FBF0F000F00CFB48B9102C07D200225C
:1009E0002146501E00F030F800206C6070BD0120E0
:1009F00070BD0000D8000020E40000200A4808B5BF
:100A0000016841F480410160006800F4804000907A
:100A10000548001F016841F080510160006800F046
:100A20008050009008BD000044380240002809DBD7
:100A300000F01F02012191404009800000F1E020F8
:100A4000C0F8001170470000F0B40E4B1B680C4654
:100A5000C3F30223C3F10705042D00D90425191D92
:100A6000072901D2002300E0DB1E012606FA05F16A
:100A7000491E214099409E40761E16403143F0BCED
:100A800001F06DB80CED00E0064900F007020868BF
:100A90004FF6FF03184040EA0220034A1043086063
:100AA000704700000CED00E00000FA052DE9F0476A
:100AB0000E46050065D0DFF81481D8F80000F7B2C3
:100AC00000F00700B04207D288F80070D8F80000A4
:100AD00000F00700B04254D128683D4C810712D580
:100AE000400703D5206840F4E050206028780007D4
:100AF00003D5206840F4604020602068A96820F099
:100B0000F000084320602878C0072DD0304968687D
:100B10000839012812D0022813D0032811D00968FF
:100B2000890700292DDA216821F0030101432160A2
:100B3000FFF71CFF814641F2883A0EE009688903FD
:100B4000EFE709688901ECE7FFF710FFA0EB090167
:100B5000514502D90320BDE8F0872068696800F09C
:100B60000C00B0EB810FEFD1D8F80010404601F037
:100B70000701B14207D90770006800F00700B042D2
:100B800001D00120E7E72878400705D52068E9680B
:100B900020F4E050084320602878000706D520683C
:100BA000296920F4604040EAC100206000F038F874
:100BB0002168084AC1F30311515CC8400649086026
:100BC00006480068FFF7FAFE0020C4E7003C024038
:100BD0000838024018210008E4000020DC00002052
:100BE0000448054900680968044AC1F38221515C40
:100BF000C8407047E400002008380240282100085F
:100C00000448054900680968044AC1F34231515C4F
:100C1000C8407047E400002008380240282100083E
:100C2000154810B5006810F00C02144813D0144990
:100C3000042A0FD0082A0ED10F4C241F22682368E3
:100C400002F03F025B0207D52068C0F38810A0FBCA
:100C5000010106E0084610BD2168C1F38811A1FB1F
:100C600000010023FFF7ACFA2168C1F30141491CE0
:100C70004900B0FBF1F010BD083802400024F40038
:100C800040787D012DE9F84F04006ED02078DFF820
:100C90004C93C007A9F104054AD009F1040001688A
:100CA000C1F38101012908D00068C0F38100022846
:100CB0000AD1D9F80000400206D52868800337D54C
:100CC00060680028E1D033E06068B0F5803F10D064
:100CD000B0F5A02F286810D020F480302860286854
:100CE00020F4802028606068A8B1FFF73FFE064628
:100CF0000DE0286840F48030F4E740F4802028605C
:100D0000F7E700BFFFF732FE801B642873D828681E
:100D10008003F7D50CE0FFF729FE064605E000BF8B
:100D2000FFF724FE801B6428F0D828688003F7D4DE
:100D30002078DFF8AC8280074FF0000A3ED5A74844
:100D4000001D016811F00C0F08D00068C0F381008D
:100D500002280BD1D9F80000400207D42868800788
:100D600016D5E068012800D112E033E1E068B8B19F
:100D70000120C8F80000FFF7F9FD064605E000BFB6
:100D8000FFF7F4FD801B0228C0D828688007F7D53C
:100D90002868216920F0F80040EAC10028600DE0D1
:100DA000C8F800A0FFF7E2FD064604E0FFF7DEFD0D
:100DB000801B02281FD828688007F7D420780007F6
:100DC00022D5864F87486169703771B10121016072
:100DD000FFF7CCFD064604E0FFF7C8FD801B0228A4
:100DE00009D838688007F7D50EE0C0F800A0FFF7F3
:100DF000BDFD064605E082E0FFF7B8FD801B022836
:100E00007DD838688007F7D42078400768D5DFF8A8
:100E1000CCB100270BF13C0BDBF80000C0000BD479
:100E2000DBF8001041F08051CBF80010DBF8000037
:100E3000012700F0805000906B4E3068C00510D440
:100E4000306840F480703060FFF790FD009005E05E
:100E5000FFF78CFD0099401A022850D83068C00571
:100E6000F6D55E4EA0686C3601280FD00528306894
:100E700010D020F001003060306820F004003060B5
:100E8000A068B8B1FFF772FD00900FE0306840F045
:100E90000100F4E740F004003060F7E7FFF766FD7B
:100EA0000099411A41F28830814266D83068800743
:100EB000F4D50EE0FFF75AFD009007E0FFF756FD6E
:100EC0000099411A41F28830814256D83068800733
:100ED000F4D42FB1DBF8001021F08051CBF80010D2
:100EE000A069C8B33D49091D0968C1F38101022900
:100EF0004AD00228504607D0C8F8600000E03CE025
:100F0000FFF734FD04463BE04746C8F86000FFF7B2
:100F10002DFD064605E000BFFFF728FD801B0228D7
:100F20002BD828688001F7D4D4E907010843A16AC7
:100F30002E4A490802EB0141626A41EA82110843E4
:100F400094F82C1040EA0161C9F8001001203866BD
:100F5000FFF70CFD044606E03EE000BFFFF706FD8C
:100F6000001B022809D828688001F7D534E000BFAB
:100F7000FFF7FCFC001B022802D90320BDE8F88F14
:100F800028688001F4D427E00128F7D0D9F80000C0
:100F9000E26900F4800191421CD1226A00F03F0115
:100FA000914217D147F6C071626A0140B1EB821FCE
:100FB00010D1A26A4FF0FF3300F4403103EB52022C
:100FC000B1EB024F06D194F82C1000F07060B0EB3A
:100FD000016F01D00120D1E70020CFE704380240A3
:100FE00000004742800E4742007000400000FFFFB3
:100FF00010B5401EB0F1807F01D3012010BD4FF02D
:10100000E02460610F21601700F0A9FD0020A061BD
:1010100007202061002010BD704710B5044600680D
:10102000406994F83D10C0F3C010212911D180B15E
:101030002068143050E8001F21F0800140E80012C1
:10104000002AF5D1606B08B1FFF7CAF9204600F01D
:10105000E7FB2068406994F83E10C0F38010222915
:1010600011D180B12068143050E8001F21F04001F8
:1010700040E80012002AF5D1A06B08B1FFF7B0F9E3
:10108000204600F0A6FB002010BD7047F8B50168AF
:1010900004460868CA684B6910F00F0F4FF000054E
:1010A00059D003F0010602F49077374365D0C107A9
:1010B00005D0D10503D5216C41F001012164410720
:1010C00005D5D90703D0216C41F0020121648107C5
:1010D00005D5D90703D0216C41F004012164010733
:1010E00007D502F02001314303D0216C41F0080103
:1010F0002164216C00293AD0800604D5900602D5DF
:10110000204600F09BFB20684069216CC0F38010F2
:10111000090700D460B3204600F05BFB20684069FB
:10112000400621D52068143050E8001F21F040010E
:1011300040E80012002AF5D1A06BA8B16C49016506
:10114000A06BFFF796F9002811D0A06B016D01B0DC
:10115000BDE8F040084783060FD593060DD520461D
:10116000BDE8F84000F06ABB2046FFF78EFFF8BDEF
:101170002046FFF78AFF2564F8BD266B2023012E49
:1011800079D1C60677D5D60675D508684868009027
:101190004869400640D5A16B086840680004000C0F
:1011A000EAD0A28D8242E7D9E085C869B0F5807F98
:1011B0002DD020680C3050E8001F21F4807140E8E9
:1011C0000012002AF5D12068143050E8001F21F0E9
:1011D000010140E80012002AF5D12068143050E8DF
:1011E000001F21F0400140E80012002AF5D184F8E8
:1011F0003E30256320680C3050E8001F21F01001BC
:1012000040E80012002AF5D1A06BFFF7E9F8A08DA5
:10121000E18D401A81B229E0A08DE18D401A81B2A2
:10122000E08D0028A8D00029A6D020680C3050E816
:10123000002F22F4907240E80026002EF5D120689D
:10124000143050E8002F22F0010240E80026002E62
:10125000F5D184F83E30256320680C3050E8002F2B
:1012600022F0100240E80023002BF5D12046FFF7C2
:10127000D3FEF8BDFFE705062BD5150629D594F852
:101280003D002128F5D1A068B0F5805F01D120692B
:10129000B0B1206A411C2162216800784860E08C6E
:1012A000401E0004000CE084E3D12068C16821F0F6
:1012B0008001C1602068C16841F04001C160D8E789
:1012C000206A0088C0F308004860206A801C206201
:1012D000E5E74006CDD55006CBD5CA68204622F0BA
:1012E0004002CA6084F83D3000F0FFF8C1E700001A
:1012F000DD16000870B5040004D094F83D00002508
:1013000010B106E0012070BD84F83C50204600F08A
:1013100023F8242084F83D002068C16821F400519E
:10132000C160204600F0EAFA2068016921F490418A
:1013300001612068416921F02A0141612068C1688A
:1013400041F40051C1602564202084F83D0084F8F8
:101350003E00002070BD00002DE9F04387B0064636
:1013600014216846FEF776FF4D484C4B32684C49D5
:1013700014380225032700249A4233D10A6842F028
:1013800010020A60096801F010010591016841F03E
:1013900002010160016801F002010591016841F05C
:1013A000010101600068CDE9024700F001000590ED
:1013B0008020CDE900050726694604963948FFF7E5
:1013C000DDF92802CDE90005CDE90247694604961A
:1013D0003548FFF7D3F9002211462520FFF734FBEB
:1013E000252055E0314B9A4254D10A6842F0200240
:1013F0000A60096801F020010591016841F040018F
:1014000001600068029400F0400005904FF48440B1
:10141000CDE900050820CDE9037069462448FFF7AF
:10142000ADF9254D23484FF4806887052860C5E94C
:101430000174C5E903486C614FF48039AC61C5E9BA
:10144000074928466C62FFF7F7F808B1FEF79FFFDF
:10145000B563AE63184D174860357830E5E802078C
:101460004020A5E81101144845F814496030AC61EA
:10147000C5E907496C62FFF7DFF808B1FEF787FF9F
:101480007563002211464720AE63FFF7DDFA47205F
:10149000FFF7CCFA07B0BDE8F08300000010014070
:1014A00044380240000402400000024000140140A1
:1014B0000018024028640240D001002090F83E301D
:1014C000202B0ED159B152B190F83C30012B08D0ED
:1014D000012380F83C300023036300F095BA01201B
:1014E000704702207047704770477047FEE7000062
:1014F0001A4808B50268002142F4800202600068C0
:10150000174A00F4800000901648C0E900218022AC
:10151000C0E90221D200C0E9042181610422C16135
:10152000C0E908120322C0E90A210163FFF784F829
:1015300008B1FEF72CFF002211463920FFF784FA8C
:101540003920FFF773FA002211464520FFF77CFA95
:10155000BDE808404520FFF769BA00003038024076
:1015600010640240E8000020114808B5016841F00D
:1015700040010160016801F040010091016841F003
:1015800001010160016801F001010091016841F071
:1015900002010160016801F002010091016841F05F
:1015A00080010160006800F08000009008BD00002C
:1015B000303802400C4810B50A4901604FF4E1315F
:1015C0004160002181600C22C160C0E90412816188
:1015D000C161FFF78FFE002803D0BDE81040FEF781
:1015E000D6BE10BD001001404801002010B50E4CC1
:1015F0000C480C2120604FF4E13060600020A060B6
:10160000E060C4E90401A061E0612046FFF772FEDA
:1016100008B1FEF7BCFE2068C16841F01001C1604E
:1016200010BD0000001401408C010020FEE7FEE721
:1016300070477047FFF7A0B930B593B030216846C6
:10164000FEF708FE14210CA8FEF704FE1D48002535
:10165000016841F080510160006800F080501190F5
:101660001948016841F4804101600068022400F4D7
:101670008040119001200390102004900094069463
:101680000820CDE90750A820CDE9090404200B90DB
:101690006846FFF7F7FA08B172B6FEE70CA90F200B
:1016A00081E831004FF4A0500F904FF4805010901B
:1016B00005210CA8FFF7FAF9002801D072B6FEE761
:1016C00013B030BD4038024000700040024801684D
:1016D00041F470010160704788ED00E010B5806B47
:1016E0000021C185C184FFF7D0FC10BD70B5846BAB
:1016F0002068406994F83D10C0F3C01000252129EE
:1017000004D118B1E584204600F08AF820684069C9
:1017100094F83E10C0F38010222904D118B1E58559
:10172000204600F056F8206C40F01000206420465F
:10173000FFF7ABFC70BD10B50146806B0968096806
:10174000C9052FD40021C18501680C3151E8002F53
:1017500022F4807241E80023002BF5D10168143196
:1017600051E8002F22F0010241E80023002BF5D1BF
:101770000168143151E8002F22F0400241E80023B3
:10178000002BF5D1202180F83E10016B012909D1F1
:1017900001680C3151E8002F22F0100241E80023CB
:1017A000002BF5D1016B012902D0FFF79CFE10BD83
:1017B000818DFFF731FC10BD10B5806B016B0129E5
:1017C00002D0FFF791FE10BD818D4908FFF724FC80
:1017D00010BD01680C3151E8002F22F4907241E8ED
:1017E0000023002BF5D10168143151E8002F22F0BD
:1017F000010241E80023002BF5D1016B012909D139
:1018000001680C3151E8002F22F0100241E800235A
:10181000002BF5D1202180F83E1000210163704794
:1018200001680C3151E8002F22F0C00241E800238A
:10183000002BF5D1202180F83D10704708B590F8B5
:101840003E10222901D0022008BD82684FF4805347
:101850009A4201D1016921B1816A9A421BD04AB1F1
:101860000AE00268816A5268C2F308020A80816A4B
:10187000891C08E0026972B10268526802F07F02B6
:101880000A70816A491C8162C18D491E0904090CD4
:10189000C18503D019E002685268F1E70168CA689F
:1018A00022F02002CA600168CA6822F48072CA600D
:1018B00001684A6922F001024A61202180F83E1045
:1018C000016B012903D0FFF70EFE002008BD0021A7
:1018D000016301680C3151E8002F22F0100241E849
:1018E0000023002BF5D101680A68D20602D50A68E8
:1018F00049680091818DFFF78FFBE6E770B50446DC
:1019000000680169E26821F44051114301612169D5
:10191000A068E26908436169114308432168CA6805
:1019200049F20C639A430243CA6020684169A26984
:1019300021F440711143416131492068884202D04D
:101940003049884202D1FFF75BF901E0FFF748F91F
:10195000E2690023192164253226B2F5004F62683E
:1019600028D0A0FB0101930F9200FEF729FC01464D
:10197000B0FBF5F06FF01802504301EB800006EB6E
:101980000010B0FBF5F000F0F002B1FBF5F002EB57
:101990000012B1FBF5F06FF01803584301EB800023
:1019A00006EB0010B0FBF5F000F00F0021681044CA
:1019B000886070BDA0FB010192185B41FEF700FC3E
:1019C0000146B0FBF5F00201B1FBF5F06FF0180332
:1019D000584301EB800006EBC000B0FBF5F000F0CF
:1019E000F80002EB4002B1FBF5F0584301EB800038
:1019F00006EBC000B0FBF5F000F00700D6E70000F2
:101A0000001001400014014038B581628285002534
:101A1000134604460564222084F83E00A26B1B484E
:101A2000D063A26B1A481064A26B1A48D064A06BF2
:101A30000A4605652168A06B091DFEF767FE206850
:101A400001684068009084F83C5020680C3050E8F1
:101A5000001F41F4807140E80012002AF5D120688F
:101A6000143050E8001F41F0010140E80012002A44
:101A7000F5D12068143050E8001F41F0400140E8E3
:101A80000012002AF5D1002038BD000037170008E9
:101A9000B9170008ED1600080148FFF7F7BA000073
:101AA0004801002038B5104800680168C943C906DC
:101AB00015D40168406800900B48FFF7AEFA0B4C54
:101AC0000B48A1688847E16820468847C821084834
:101AD000FEF7C0FBC82206490348FFF7EFFCBDE84C
:101AE00038400148FFF7D2BA8C010020BC0000202A
:101AF00090020020FEE7000030B50C46050014D02F
:101B0000022C12D90A48A11E02882846FEF742FC80
:101B10002919C2B211F8023C9A4206D111F8011CEF
:101B2000B1EB102F01D1012030BD002030BD0000ED
:101B3000D400002030B50C4605000ED0022C0CD984
:101B4000601E81B2FF222846FEF73AFC291911F8DF
:101B5000011C814201D1012030BD002030BD0907A8
:101B6000090E002804DB00F1E02080F80014704723
:101B700000F00F0000F1E02080F8141D704702E033
:101B800008C8121F08C1002AFAD170477047002008
:101B900001E001C1121F002AFBD170470168007DDE
:101BA000012801D10020887270470168B1F8B62081
:101BB000521C12B2A1F8B620B1F9B8309A4203DD36
:101BC000A1F8B630012103E0017D012901D10021F6
:101BD000017570470268B2F8B810491CA2F8B61037
:101BE00001210175704700002DE9F04705467C484A
:101BF0004FF00008012604682868C146C4F81100A7
:101C0000287960752878A52873D105212846FFF723
:101C100091FF012855D1608A093087B22780394663
:101C20002846FFF769FF01284BD18046A4F8B690FB
:101C3000B5F8050040F202226080A0F20221904235
:101C40006CD019DC40F20112A0F2011190424BD08D
:101C500008DC012827D0022834D0032836D00428F5
:101C60002FD138E0012945D0032949D004294CD08F
:101C7000B1F5807F25D14CE005296BD008DC012926
:101C800054D0022959D003295BD0042919D15CE032
:101C900006296CD0072975D0FF2978D0A1F580716D
:101CA00001390ED17DE0D5F80700C4F81600D5F84B
:101CB0000B00C4F81A00B5F80F00E083687C84F8C4
:101CC000200075E0E87984F8210071E02022E91D08
:101CD00004F122002EE0B5F80700A4F84200687A6B
:101CE00084F84400667363E0D5F80700C4F8450043
:101CF0005EE068E0D5F80700C4F84900A67357E035
:101D0000B5F80700A4F84D0052E0E87984F84F00D8
:101D10004EE01B22E91D04F150000BE01022E91DEA
:101D200004F16B00FEF77DFAA67241E01022E91D76
:101D300004F17B00FEF775FA3AE0E87984F88B004D
:101D400036E0E87984F88C0032E0E87984F88D0098
:101D500026732DE0D5F80700C4F88E00B5F80B0007
:101D6000A4F89200687B84F89400E67220E0D5F82D
:101D70000700C4F89500B5F80B00A4F8990017E027
:101D800000E004E0D5F80700C4F89B0010E0D5F8A7
:101D90000700C4F89F00D5F80B00C4F8A300267410
:101DA00006E00F22E91D04F1A700FEF73AFAE673F8
:101DB000E85DA52802D1E819FFF716FFB8F1000F7A
:101DC00001D0012000E00020A07110B1A671BDE893
:101DD000F087A088401CA08084F80690F7E70000F8
:101DE000BC000020FEF7D0FDFFF726FCFFF7BCFB90
:101DF000FFF77EFBFFF7FAFBFFF7DCFBC822024987
:101E00000248FFF75BFBFEE7900200208C010020F8
:101E1000005EBCE2613FDD83C29C7E20A3FD1F41CA
:101E20009DC3217FFCA2401E5F01E3BD3E6082DCBA
:101E3000237D9FC1421CFEA0E1BF5D0380DE3C62AA
:101E4000BEE0025CDF81633D7C22C09E1D43A1FF9A
:101E50004618FAA427799BC584DA3866E5BB59078A
:101E6000DB856739BAE406581947A5FB7826C49A7A
:101E7000653BD987045AB8E6A7F91B45C6987A246A
:101E8000F8A6441A99C7257B3A6486D85B05E7B95A
:101E90008CD2306EEDB3510F4E10F2AC2F7193CD4A
:101EA000114FADF3702ECC92D38D6F31B2EC0E503A
:101EB000AFF1134DCE90722C6D33D18F0C52B0EE2A
:101EC000326C8ED0530DEFB1F0AE4C1291CF2D731A
:101ED000CA947628ABF517490856B4EA6937D58B0A
:101EE0005709EBB536688AD495CB2977F4AA4816FA
:101EF000E9B7550B88D6346A2B7597C94A14F6A8EA
:101F0000742AC896154BA9F7B6E80A54D7896B35D9
:101F10000000891112239B322446AD573665BF74E9
:101F2000488CC19D5AAFD3BE6CCAE5DB7EE9F7F899
:101F30008110080193331A22A5562C47B7753E64C9
:101F4000C99C408DDBBF52AEEDDA64CBFFF976E879
:101F500002218B30100299132667AF763444BD55A9
:101F60004AADC3BC588ED19F6EEBE7FA7CC8F5D959
:101F700083310A2091121803A7772E66B5543C4589
:101F8000CBBD42ACD99E508FEFFB66EAFDD874C939
:101F900004428D5316619F702004A9153227BB3669
:101FA0004CCEC5DF5EEDD7FC6888E1997AABF3BA19
:101FB00085520C4397711E60A1142805B3373A2649
:101FC000CDDE44CFDFFD56ECE9986089FBBB72AAF9
:101FD00006638F7214409D512225AB343006B91729
:101FE0004EEFC7FE5CCCD5DD6AA9E3B8788AF19BD9
:101FF00087730E6295501C41A3352A24B116380709
:10200000CFFF46EEDDDC54CDEBB962A8F99A708BB8
:10201000088481951AA793B62CC2A5D33EE1B7F0E8
:102020004008C919522BDB3A644EED5F766DFF7C98
:10203000899400859BB712A6ADD224C3BFF136E0C8
:10204000C1184809D33B5A2AE55E6C4FF77D7E6C78
:102050000AA583B4188691972EE3A7F23CC0B5D1A8
:102060004229CB38500AD91B666FEF7E744CFD5D58
:102070008BB502A499961087AFF326E2BDD034C188
:10208000C3394A28D11A580BE77F6E6EF55C7C4D38
:102090000CC685D71EE597F42880A1913AA3B3B268
:1020A000444ACD5B5669DF78600CE91D722FFB3E18
:1020B0008DD604C79FF516E4A9902081BBB332A248
:1020C000C55A4C4BD7795E68E11C680DF33F7A2EF8
:1020D0000EE787F61CC495D52AA1A3B03882B19328
:1020E000466BCF7A5448DD59622DEB3C700EF91FD8
:1020F0008FF706E69DD414C5ABB122A0B992308308
:10210000C77B4E6AD5585C49E33D6A2CF11E780FB7
:102110000006101600061016000000000000000067
:10212000010203040607080900000000010203047D
:102130005021000800000020E80000007E1B00087D
:1021400038220008E8000020700600008E1B0008FE
:10215000000000000000000000000000000000007F
:10216000000000000000000000000000000000006F
:10217000000000000000000000000000000000005F
:10218000000000000000000000000000000000004F
:10219000000000000000000000000000000000003F
:1021A000000000000000000000000000000000002F
:1021B000000000000000000000000000000000001F
:1021C000000000000000000000000000000000000F
:1021D00000000000000000000000000000000000FF
:1021E00000000000000000000000000000000000EF
:1021F00000000000000000000000000000000000DF
:102200000000000000000000C800000000000020E6
:10221000D51B0008E91B00089D1B0008AB1B00082C
:1022200001000800FFFF0000010000001000000096
:08223000000000000024F4008E
:040000050800018965
:00000001FF
